:020000040000FA
:10000000E0320020090300000D0300000F03000090
:10001000110300001303000015030000F7030000A4
:10002000F7030000F7030000F703000017030000C8
:1000300019030000F70300009304000035200000BE
:100040001F0300002103000023030000250300001C
:1000500027030000290300002B0300002D030000EC
:100060002F030000310300003303000035030000BC
:1000700037030000390300003B0300003D0300008C
:100080003F0300004103000043030000450300005C
:1000900047030000490300004B0300004D0300002C
:1000A0004F030000510300005303000055030000FC
:1000B00057030000590300005B0300005D030000CC
:1000C0005F0300006103000063030000650300009C
:1000D00067030000690300006B0300006D0300006C
:1000E0006F03000071030000F703000073030000BA
:1000F0007503000077030000790300007B03000014
:100100007D0300007F0300008103000083030000E3
:10011000F7030000F70300008503000087030000D9
:10012000890300008B0300008D0300008F03000093
:100130009103000093030000950300009703000063
:10014000F7030000F7030000F7030000F7030000C7
:10015000990300009B0300009D0300009F03000023
:10016000F7030000F7030000F7030000F7030000A7
:10017000F7030000F7030000F7030000F703000097
:10018000F7030000F7030000F7030000F703000087
:10019000F7030000F7030000F7030000F703000077
:1001A000F7030000F7030000F7030000F703000067
:1001B000A1030000A3030000A5030000A7030000A3
:1001C000A9030000AB030000AD030000AF03000073
:1001D000B1030000B3030000B5030000B703000043
:1001E000B9030000BB030000BD030000F7030000DB
:1001F000F7030000BF030000C1030000C3030000B9
:10020000C5030000C7030000F7030000F703000068
:10021000C9030000CB030000CD030000CF030000A2
:10022000D1030000D3030000D5030000D703000072
:10023000D9030000DB030000DD030000DF03000042
:10024000E1030000E3030000E5030000E703000012
:10025000E9030000EB030000ED030000EF030000E2
:10026000F1030000F3030000F503000000F002F8C2
:1002700000F03AF80AA090E8000C82448344AAF106
:100280000107DA4501D100F02FF8AFF2090EBAE804
:100290000F0013F0010F18BFFB1A43F001031847BA
:1002A0001428000034280000103A24BF78C878C110
:1002B000FAD8520724BF30C830C144BF04680C606C
:1002C000704700000023002400250026103A28BFB4
:1002D00078C1FBD8520728BF30C148BF0B607047B8
:1002E0001FB51FBD10B510BD00F009F91146FFF78D
:1002F000F7FF02F0F1FA00F027F903B4FFF7F2FF7D
:1003000003BC00F02BF900003E480047FEE7FEE783
:10031000FEE7FEE7FEE7FEE7FEE7FEE7FEE7FEE7B5
:10032000FEE7FEE7FEE7FEE7FEE7FEE7FEE7FEE7A5
:10033000FEE7FEE7FEE7FEE7FEE7FEE7FEE7FEE795
:10034000FEE7FEE7FEE7FEE7FEE7FEE7FEE7FEE785
:10035000FEE7FEE7FEE7FEE7FEE7FEE7FEE7FEE775
:10036000FEE7FEE7FEE7FEE7FEE7FEE7FEE7FEE765
:10037000FEE7FEE7FEE7FEE7FEE7FEE7FEE7FEE755
:10038000FEE7FEE7FEE7FEE7FEE7FEE7FEE7FEE745
:10039000FEE7FEE7FEE7FEE7FEE7FEE7FEE7FEE735
:1003A000FEE7FEE7FEE7FEE7FEE7FEE7FEE7FEE725
:1003B000FEE7FEE7FEE7FEE7FEE7FEE7FEE7FEE715
:1003C000FEE7FEE7FEE7FEE7FEE7FEE7FEE7FEE705
:1003D000FEE7FEE7FEE7FEE7FEE7FEE7FEE7FEE7F5
:1003E000FEE7FEE7FEE7FEE7FEE7FEE7FEE7FEE7E5
:1003F000FEE7FEE7FEE7FEE703480449024A044B36
:10040000704700006D020000E0300020E032002064
:10041000E030002072B6704762B67047EFF310808C
:1004200072B6704780F31088704730BF704720BFA6
:100430007047B0FA80F0704790FAA0F0B0FA80F000
:10044000704790FAA0F07047EFF3108072B67047D3
:1004500080F3108870471F484FF0FF0101700020A3
:1004600080F309881C48016881F308881B48012132
:1004700001701B484FF08051016062B6FEE71848DA
:100480004FF080510160704715484FF08051016076
:10049000704772B6EFF3098028B1203880E8F00F7A
:1004A00010490968086000B50F4880475DF804EB03
:1004B0000E480F490A7802700A480E490A6802601D
:1004C000106890E8F00F203080F309884EF0F40EA9
:1004D00062B6704722ED00E08C0000204E00002044
:1004E00004ED00E054000020111C00004300002037
:1004F000440000205C00002070477047704775463C
:1005000000F028F8AE4605006946534620F0070083
:10051000854618B020B5FFF76FFFBDE820404FF0CB
:1005200000064FF000074FF000084FF0000B21F0DD
:100530000701AC46ACE8C009ACE8C009ACE8C009AA
:10054000ACE8C0098D4670470446AFF300802046F2
:10055000FFF7D3FE00487047803000200149182083
:10056000ABBEFEE726000200704700001CE00F480B
:10057000002102680E48006800F0E4FF01240DE04D
:10058000204600F02DFA204600F08CFA322001F0CF
:1005900043FB204600F0DCF9601CC4B2072CEFDB03
:1005A0000348006801F046F8E1E70000040000207D
:1005B000000000204FE0284800210268274800681A
:1005C00000F09AFE26480078012844D1002000F06F
:1005D000BFF9012000F0BCF9022000F0B9F921A018
:1005E00002F061F900F0FF0841461EA000F02AFC6D
:1005F00000272BE0002000F0F3F900240DE0002597
:1006000007E0002601E0701CC6B2322EFBDB681C3E
:10061000C5B2322DF5DB601CC4B2322CEFDB0020FA
:1006200000F096F900240DE0002507E0002601E027
:10063000701CC6B2322EFBDB681CC5B2322DF5DB56
:10064000601CC4B2322CEFDB781CC7B2042FD1DBA4
:10065000002003490870AEE70C00002008000020CD
:10066000100000204C45442032205461736B203A26
:1006700020504952204F75747075742076616C75E6
:10068000652052656365697665642046726F6D20EA
:100690004D61696C626F780A0D0000001AE000F08D
:1006A000DFFB0446012C12D10B48047001460B48B5
:1006B000006800F0A5FE0A4802F0F5F8C5B2294628
:1006C000074800F0BFFBC82001F0A6FA02E01420A2
:1006D00001F0A2FAE3E7000010000020080000206B
:1006E000FC28000070B5064600F0BCF800F092FA55
:1006F00004464FF47A70B4FBF0F5284601F0AEFCE6
:1007000000F0B6FB00F00AFC06230D4A00210D485C
:1007100000F0E6FF05230C4A00210C4800F0E0FF42
:1007200003230B4A00210B4800F0DAFF04230A4A96
:1007300000210A4800F0D4FF022001F083F870BDC8
:10074000900800206D050000900C0020610700005B
:10075000901000209D06000090140020B5050000B8
:1007600027E000F047FA012820D112480021026852
:100770001148006800F0E6FE002000F0E9F80120D2
:1007800000F0E6F8022000F0E3F80CA002F08BF88D
:10079000C4B2214609A000F055FB4FF4967001F059
:1007A0003BFA0548006800F045FF02E0052001F033
:1007B00033FAD6E70400002000000020427574746C
:1007C0006F6E205461736B203A20537769746368AD
:1007D00020497320507265737365640A0D00000030
:1007E0007047704770477047704770477047704751
:1007F00010B5002400BF00BFFFF710FE044600BF85
:1008000000BF00F0F5FC00BF00BF2046FFF70AFE66
:1008100000BF00BF002000F0E3F800F0FBFC002068
:1008200000F0DEF8012000F0DBF8022000F0D8F83C
:1008300010BD10B5002400BF00BFFFF7EFFD044658
:1008400000BF00BF00F0D4FC002000F0C9F800BFDA
:1008500000BF2046FFF7E6FD00BF00BF00F0DAFC56
:1008600010BD000010B500F02DF800F023FA00F0E4
:10087000FFF800F0A5F900F081F900F06BFA012013
:1008800000F036FE06490860012000F031FE0549FF
:100890000860054800F006FD0449086010BD00002E
:1008A000000000201400002010000020080000209C
:1008B00000BFFEE710B5FFF79BFF10BD10B5FFF7B7
:1008C000B8FF10BD10B5002412E01E2C04D1E0B218
:1008D0000D4900F023F80AE0012C04D1E0B20B49E5
:1008E00000F01CF803E0E0B2094900F017F8641CBE
:1008F0008B2CEAD307480068074940EA01004FF013
:10090000E021C1F8000110BDBD080000B5080000DD
:10091000B108000000E100E00200004070B50446AC
:100920000D4600268B2C10DA00BF00BFFFF776FDC6
:10093000064600BF00BF054840F8245000BF00BF76
:100940003046FFF76FFD00BF00BF70BD941400205C
:1009500007283DD2DFE800F0040C141C242C3400DE
:100960001D49096821F002011C4AC2F8FC1330E05D
:100970001949096821F00401184AC2F8FC1328E05B
:100980001549096821F00801144AC2F8FC1320E057
:100990001149096821F00601104AC2F8FC1318E059
:1009A0000D49096821F00A010C4AC2F8FC1310E055
:1009B0000949096821F00C01084AC2F8FC1308E053
:1009C0000549096821F00E01044AC2F8FC1300E051
:1009D00000BF00BF70470000FCD3054000D00540B9
:1009E00007283DD2DFE800F0040C141C242C34004E
:1009F0001D49096841F002011C4AC2F8FC1330E0AD
:100A00001949096841F00401184AC2F8FC1328E0AA
:100A10001549096841F00801144AC2F8FC1320E0A6
:100A20001149096841F00601104AC2F8FC1318E0A8
:100A30000D49096841F00A010C4AC2F8FC1310E0A4
:100A40000949096841F00C01084AC2F8FC1308E0A2
:100A50000549096841F00E01044AC2F8FC1300E0A0
:100A600000BF00BF70470000FCD3054000D0054028
:100A70000848006840F02000064908600648C06E3B
:100A800040F020000449C8660E200449086004496B
:100A90000860704708E60F4000E00F4000D40540B2
:100AA0001CD5054070B50446072C44D2DFE804F09D
:100AB000040D161F28313A0020A001F0F4FEC5B243
:100AC00029461EA000F0BEF936E01EA001F0EBFEA4
:100AD000C5B229461BA000F0B5F92DE01BA001F01E
:100AE000E2FEC5B2294619A000F0ACF924E019A035
:100AF00001F0D9FEC5B2294616A000F0A3F91BE00B
:100B000016A001F0D0FEC5B2294614A000F09AF953
:100B100012E015A001F0C7FEC5B2294612A000F0F0
:100B200091F909E013A001F0BEFEC5B2294611A05B
:100B300000F088F900E000BF00BF70BD5265640A94
:100B40000D000000426C75650A0D00004772656576
:100B50006E0A0D0050696E6B0A0D000059656C6CD1
:100B60006F770A0D00000000536B7920426C7565A9
:100B70000A0D000057686974650A0D000E48006888
:100B800040F002000C4908600C48006820F00200A8
:100B90000A49086009482038006820F02000074909
:100BA000203908600548FC30006840F02000034907
:100BB000FC3108607047000008E60F4020540040F8
:100BC0000A48006820F011000849086008480068D9
:100BD00040F011000649086005480C30006840F0FC
:100BE000110003490C3108607047000000D4054033
:100BF00010D50540054800684FF0010121EA1010AA
:100C0000034908700846007870470000FCD305408F
:100C10001C0000202DE9F043DFF890C0DCF860C034
:100C2000CCF3805CBCF1000F3CD0DFF880C0DCF876
:100C300060C1CCF38A23DFF874C0DCF860C1CCF368
:100C40000A0707EB9322DFF864C0DCF864C1CCF339
:100C50000424DFF858C0DCF864C10CF01F05DFF88D
:100C60004CC0DCF860C0CCF3011111B1032904D1F0
:100C700001E00F4902E00E4900E000BF00BF01FBA8
:100C800002F804F1010C05F101090CFB09FCB8FBA9
:100C9000FCF0DFF818C0DCF860C0CCF3C356B0FB42
:100CA000F6F000E00020BDE8F083000000E00F4017
:100CB0000024F4002448C06F20F004002249C867D3
:100CC0000846006E40F4006008660846006E20F496
:100CD000005008660846006F40F0804008670846EC
:100CE000006E40F0007008660846006E20F0C0708C
:100CF00008660846006E40F4800008660846006EEC
:100D000040F4A86008660846006E20F4207008666B
:100D100032200E4908604FF001000B49C1F8640110
:100D20000846006E20F0010008660846006E20F0BC
:100D30003000086600BF0648006800F0010090F02F
:100D40000100F8D17047000000E00F4060E10F4063
:100D500068E10F402448006840F001002349C1F8D1
:100D600004010846D0F8080140F02300C1F808014A
:100D70001F48006B20F001001D4908630846406AC7
:100D800040F0080048620846806A40F02C00886203
:100D90000846C06A40F07000C8621648006840F01B
:100DA0000500144908601248006B40F0010010492A
:100DB00008631148006820F0FF0000F111000E499F
:100DC00008600E48006840F003000C4908600C48B9
:100DD000006840F003000A4908600A48006840F0D3
:100DE000030008490860704704E10F4000E00F402D
:100DF00000C00040C8CF00402C45004020440040C7
:100E00001C4500402845004010B5044600BF0A4874
:100E10008069012131EAD000F9D008480021026838
:100E20000748006800F08EFB03480460044800682F
:100E300000F000FC10BD000000C0004018000020C1
:100E40001400002070B505460E46002404E0285D1D
:100E5000FFF7DAFF601CC4B2B442F8DB70BD0000DB
:100E600002480068C0F3401070470000FC53004087
:100E700010B500F01FF800F019F810BD10B50024EF
:100E800000BF00BFFFF7CAFA044600BF00BF102131
:100E9000054800F039F800BF00BF2046FFF7C2FA4E
:100EA00000BF00BF10BD0000081B002010B5FFF7F9
:100EB000E5FF10BD10B500200249086000F00AF8F7
:100EC00010BD0000240000200149086070470000A8
:100ED0002400002010B50A48006840F080700849DE
:100EE00008600020074948600846006840F001009B
:100EF0000860FFF78FFE04462046FFF7E5FF10BDB0
:100F0000FCED00E0001000E030B505460C4622463E
:100F10000021284600F026F830BD00000D480E499B
:100F200001600146416000218160C1600161416151
:100F30008161C16101620163C162416207498163EC
:100F4000C1634FF48061016441640146044A116049
:100F500070470000C0160020484541500817002087
:100F6000200000202DE9F04103460C4617460FB93A
:100F7000BDE8F08103B9FBE70025002202E02D0265
:100F80002543521C042AFAD3384603F0030C1946B1
:100F9000BCF1000F08D0624603E001F8014B401E8F
:100FA000521C08B1042AF8D30E4601E020C6001FE7
:100FB0000428FBD2314602E001F8014B401E002814
:100FC000FAD100BFD4E700001D481E481E481F4844
:100FD0001F482048204821482148224822482348C9
:100FE0002348244824482548254826482648274899
:100FF000274828482848294829482A482A482B4869
:101000002B482C482C482D482D482E482E482F4838
:101010002F48304830483148314832483248334808
:1010200033483448344835483548364836483748D8
:101030003748384838483948394800BF70470000B9
:10104000402A0000442A00004A2A00004C2A0000DE
:10105000482A00004E2A0000502A0000522A0000B0
:10106000542A0000562A0000582A00005A2A00007C
:101070005C2A00005E2A0000602A0000622A00004C
:10108000642A0000662A0000682A00006A2A00001C
:101090006C2A00006E2A0000702A0000722A0000EC
:1010A000742A0000762A0000782A00007A2A0000BC
:1010B0007C2A00007E2A0000802A0000822A00008C
:1010C000842A0000862A0000882A00008A2A00005C
:1010D0008C2A00008E2A0000902A0000922A00002C
:1010E000962A0000982A00009A2A00009C2A0000F4
:1010F000C0290020402E0020A02A0000A22A0000C3
:10110000A42A0000A62A0000A82A0000AA2A00009B
:10111000AC2A0000AE2A0000B02A00009E2A00007F
:10112000B22A00002DE9F04105460E46144600277C
:101130001148007818B112202070BDE8F08128789D
:10114000012808D0022807D0032802D0042804D19F
:1011500000E000BF00BF00BF02E001202070ECE70C
:1011600000BFFFF771F907466E613846FFF770F967
:101170000020207000BFE0E74100002010B500F023
:1011800019F801F0BFF801F0EBF801F00BF901F0EC
:1011900089F801F049F801F09FF901F0C9F901F06F
:1011A00041F901F067F900F00BFE00F01FF8FFF7BE
:1011B0000BFF10BD0948802102E0491E002204C037
:1011C0000029FAD1064A074B1A601A46126822F023
:1011D00007021A600022044B1A807047802E0020FC
:1011E000803000208C00002090000020704700001C
:1011F00006480078012808D105480078FF2804D265
:1012000003480078401C0249087070474E000020D7
:101210004100002010B500241A480078012830D180
:10122000FFF712F904461848007820B116480078F4
:10123000401E1549087014480078F8B91348007822
:10124000E0B901F0D7F912481249097850F82100A5
:10125000114908600F4800781049097888420DD07C
:101260000D480068C06B401C0B490968C8630C48F6
:101270000068401C0A490860FFF706F92046FFF79E
:10128000E7F810BD4E000020410000204200002081
:1012900058200020440000205C0000204300002073
:1012A0002800002070B5054600261048007808B1D7
:1012B000002070BDFFF7C8F806460D4804680068B6
:1012C00020B10B4800684068094908603046FFF7C4
:1012D000BFF84CB10120207000202081656005A07E
:1012E0006061204600F092FF2046E2E741000020C6
:1012F0002C0000203F0000002DE9F04105460F467C
:1013000014464FF000082878012804D001202070EE
:101310000020BDE8F0813748007818B10220207025
:101320000020F6E73448007818B10D202070002026
:10133000EFE7FFF789F880466E6846B100206860E5
:101340004046FFF785F8002020703046E1E72B4843
:10135000006890F8340040F002002849096881F8DC
:10136000340000202549096881F8350023480068C9
:101370000763284600F00CFF4046FFF769F801F0CC
:10138000FFF8FFF761F880461C48006890F83500C8
:1013900020B101280DD002280AD105E017480068C5
:1013A000466A002020700DE000260E20207009E023
:1013B00000BF29461148006800F0B4FE00260A204C
:1013C000207000BF00BF00200C49096881F834007C
:1013D0000A49096881F8350008490968C861074960
:1013E000096808620549096848624046FFF730F815
:1013F00030468EE7410000204200002054000020CB
:1014000070B504460D4600262078012801D0012041
:1014100070BDFFF719F80646A07A60B100230222DA
:101420002946204600F034FE3046FFF711F801F05F
:10143000A7F80020ECE7606820B13046FFF708F815
:101440001420E5E765603046FFF702F80020DFE78B
:1014500010B500240B480078012811D1FEF7F4FFE5
:1014600004460948007840B908480078FF2804D2AB
:1014700006480078401C054908702046FEF7E8FF42
:1014800010BD00004E00002041000020420000205E
:1014900010B5002413480078012821D1FEF7D4FFAD
:1014A000044611480078C0B91048007888B10F4848
:1014B0000078401E0D4908700846007828B920467B
:1014C000FEF7C6FF01F05CF80AE02046FEF7C0FF19
:1014D00006E02046FEF7BCFF02E02046FEF7B8FF1C
:1014E00010BD00004E0000204100002042000020FE
:1014F00070B5054600261048007808B1002070BD80
:10150000FEF7A2FF06460D480468006820B10B48AC
:1015100000684068094908603046FEF799FF4CB101
:101520000320207025810020606005A060612046B6
:1015300000F06CFE2046E2E7410000202C00002075
:101540003F0000002DE9F04105460E4614460027F5
:101550002878032803D001202070BDE8F0813248AC
:10156000007810B102202070F7E73048007810B101
:101570000D202070F1E7FEF767FF0746288940B18C
:101580002889401E28813846FEF762FF002020701F
:10159000E3E72748006890F8340040F00100244950
:1015A000096881F8340000202149096881F8350074
:1015B0001F4800680663284600F0EAFD3846FEF73B
:1015C00047FF00F0DDFFFEF73FFF074618480068C1
:1015D00090F8350020B1012809D0022806D102E098
:1015E000002020700BE00E20207008E000BF29468C
:1015F0000F48006800F096FD0A20207000BF00BF71
:1016000000200B49096881F834000949096881F80C
:10161000350007490968C861054909680862384604
:10162000FEF716FF00BF98E74100002042000020AF
:101630005400002070B5044600252078032801D00E
:10164000012070BDFEF700FF0546A07A60B10023BF
:1016500001221946204600F01BFD2846FEF7F8FE41
:1016600000F08EFF0020ECE720894FF6FF718842E2
:1016700007D22089401C20812846FEF7E9FE002081
:10168000DFE72846FEF7E4FE3320DAE710B50B4823
:10169000007890B900F0AEFF094800780949087059
:1016A00009480749097850F82100084908600846A8
:1016B000006807490860FEF7CEFE10BD4E0000200E
:1016C0004400002043000020582000205C0000203F
:1016D0005400002010B504462046FFF781F810BDE5
:1016E0002DE9FE4F06460F4690461C464FF0000976
:1016F000FEF7AAFE81461F48007828B14846FEF74B
:10170000A7FE3C20BDE8FE8F1B4850F8240060BBBC
:101710000120194941F824004846FEF799FE0023AC
:1017200042463946304600F0CDF98246002000900E
:1017300001900346024651460290204600F070FF99
:10174000054635B90D48007801280CD100F018FF86
:1017500009E0FEF779FE81460020074941F82400A0
:101760004846FEF775FE2846CCE74846FEF770FE71
:101770002820C7E741000020582000204E0000200C
:101780002DE9F04F85B081468A4693461C46DDE937
:101790000F78129D00200390FEF756FE0390234819
:1017A000007830B10398FEF753FE3C2005B0BDE849
:1017B000F08F1F4850F8240088BB01201C4941F8D5
:1017C00024000398FEF744FE2A464146384601F0BD
:1017D0005DF82B465A465146484600F073F904908E
:1017E0001198CDE9008002953A4620460E9B049957
:1017F00000F016FF064636B90E48007801280CD1D5
:1018000000F0BEFE09E0FEF71FFE0390002008492D
:1018100041F824000398FEF71BFE3046C6E7FFE7B9
:101820000398FEF715FE2820C0E7000041000020C5
:10183000582000204E00002010B504462046FEF738
:10184000D0FF10BD2DE9F041054600274A48007839
:1018500010B14020BDE8F0813F2D01D13E20F9E7D5
:10186000FEF7F2FD0746FF2D03D14448006890F8CB
:101870003650434850F8254024B93846FEF7E8FD75
:101880004320E7E7012C04D13846FEF7E1FD3D2077
:10189000E0E714F8380F3B49085C61788843217809
:1018A000384A505414F838091146085C30B994F895
:1018B0003A1035480078884333490870E06918B118
:1018C0002046E16900F02EFC206A18B12046216A0A
:1018D00000F03FFCA66A16B1304600F0D1FC0020B3
:1018E000206384F8340084F8350028480078FF2805
:1018F00004D226480078401C244908703846FEF778
:10190000A7FD00F0C3FBFEF79FFD07461F480078C8
:1019100020B11E480078401E1C490870204600F087
:1019200041F81B480078401E1949087000201449EE
:1019300041F82500A06930B9002061698861154926
:101940006069086005E0D4E905014861D4E9051043
:1019500088611148006860610F4804600FA020652D
:101960003846FEF775FD0E480078012801D100F0D9
:1019700007FE00206EE70000410000205400002018
:101980005820002046000020450000204200002092
:101990004F00002060000020580000203F000000A1
:1019A0004E00002010B504462046FEF71BFF10BD78
:1019B00010B5FEF718FF10BD2DE9F04106460F46A1
:1019C00014464FF000081548007818B11220207016
:1019D000BDE8F081FEF738FD8046FF2E03D11048A8
:1019E000006890F836600F4850F826502DB94046F0
:1019F000FEF72EFD43202070EAE7012D05D1404679
:101A0000FEF726FD43202070E2E72F654046FEF7F3
:101A10001FFD0020207000BFDAE700004100002019
:101A2000540000205820002010B504462046FEF740
:101A3000DBFE10BD10B5FEF7D8FE10BD2DE9F04756
:101A400007460D464FF0000A002028606860FEF748
:101A5000FBFC8246FF2F03D11848006890F83670CF
:101A6000174850F827402CB95046FEF7F1FC4320A8
:101A7000BDE8F087012C04D15046FEF7E9FC432075
:101A8000F6E7207C10F0010F04D15046FEF7E0FC91
:101A90004520EDE70026D4F80C90D4F80880504695
:101AA000FEF7D6FC00E0761C58F8041B0029FAD09B
:101AB0002E60A9EB060068600020D9E754000020E2
:101AC0005820002070B50446101D20F007004FF08C
:101AD0008076051F28462E60051F28462C60214E63
:101AE000051F28462E604FF01236051F28462E602F
:101AF0004FF00336051F28462E604FF00236051FB3
:101B000028462E607610051F28462E60051F2846A1
:101B100029604FF01136051F28462E604FF0103611
:101B2000051F28462E604FF00936051F28462E60F7
:101B30004FF00836051F28462E604FF00736051F68
:101B400028462E604FF00636051F28462E604FF0BF
:101B50000536051F28462E604FF00436051F28461F
:101B60002E6070BD992700002DE9F04105464FF029
:101B70000008FEF769FC8046FF2D05D1204800686B
:101B800090F83650012608E01D48006890F83600AD
:101B9000A84201D1012600E000261A4850F825404D
:101BA0002CB94046FEF754FC4820BDE8F081012CDA
:101BB00004D14046FEF74CFC4320F6E794F8387019
:101BC0001148C05D94F8391088430F49C85508463C
:101BD000C05D30B994F83A100C48007888430B493E
:101BE000087094F8340040F0080084F8340040464F
:101BF000FEF72EFC012E01D100F0C2FC0020D4E73C
:101C000054000020582000204600002045000020FD
:101C100010B5FEF7EBFD10BD70B505460026174860
:101C2000007800B170BD1648007800B1FAE71DB326
:101C3000FEF70AFC06461348006890F83840124840
:101C4000005D1049096891F8391088430E4908551C
:101C50000846005D40B90B48006890F83A100B4800
:101C600000788843094908700648006805633046D3
:101C7000FEF7EEFB00F084FC00BFD3E7410000203C
:101C800042000020540000204600002045000020B3
:101C900070B5002600F076F8FEF7D6FB064633480E
:101CA0000068401C314908603046FEF7D1FB3048DF
:101CB0000078012857D12F48007820B1012804D09E
:101CC000022809D103E001250BE0002509E00125E8
:101CD00001202849087004E00125002025490870EA
:101CE00000BF00BF05B970BD2348046837E0FEF7A8
:101CF000ABFB0646206B70B3206B401E2063206B4D
:101D000048BB94F8340010F0370F09D014F8340FA2
:101D100000F0C800207001206070A4F1340402E0DB
:101D2000002084F8350094F8340010F0080F12D128
:101D300004F13804A0781149097840EA01000F49FC
:101D4000087020780E49085C617840EA010014F8B8
:101D500038190B4A505464693046FEF779FB94F801
:101D600036003F28C3D100BFBDE70000740000204B
:101D70004E0000206400002060000020450000208C
:101D80004600002010B5FEF732FD07480088401CD1
:101D90000549088008460088642803D3002008808D
:101DA00000F004F810BD00009000002010B50348BA
:101DB0000068FFF73FFC0446204610BD8400002069
:101DC000F8B54FF42071284800F07CFB40212748EB
:101DD00000F078FB002514E0681C86B205EB850056
:101DE000214901EBC00406EB860001EBC00764202B
:101DF0002070002084F82500E7601DA02062681C88
:101E000085B20F2DE8D305EB8500174901EBC0041F
:101E100064202070002084F82500E06014A0206277
:101E200000201449086014490880102013490880D4
:101E30000D48134908600120FFF75AFB114908605B
:101E40000020FFF755FB104908606A460FA10D48B6
:101E50000068FFF767F96A4611A10B480068FFF7B1
:101E600061F900F027F8F8BDC0290020402E0020BD
:101E70003F0000007C0000207A0000207800002055
:101E800088000020800000208400002075432F4F30
:101E9000532D494920546D724C6F636B0000000054
:101EA00075432F4F532D494920546D725369676E06
:101EB000616C000000B587B00320002180220A4B2E
:101EC000CDE90132CDE903104FF6FD703D23074AFD
:101ED00000900748FFF754FC06AA06A13D20FFF733
:101EE0006BFD07B000BD0000402C00203C2E002000
:101EF000711F000075432F4F532D494920546D72B7
:101F00000000000070B50B46032580F82550012B1A
:101F100005D1154EC5693668354445610CE08569C3
:101F20002DB9114EC56936683544456104E00E4E41
:101F30008569366835444561057D05F007040B4D1C
:101F400005EBC4010D682DB908600025C5600125A9
:101F50008D8006E00A680860C26010618D886D1C83
:101F60008D800025056170BD7C000020402E002082
:101F700008B500BF00BF6A4600211A480068FFF795
:101F8000E1FAFFF765FA18480068401C1649086036
:101F90000846007800F00708144800EBC8073C68C2
:101FA0001AE0E668104960690968884213D1204642
:101FB00000F01EF894F82400022804D101212046E4
:101FC000FFF7A0FF02E0022084F82500656815B144
:101FD0002046A168A8473446002CE2D1FFF758FA02
:101FE000C9E70000840000207C000020402E002073
:101FF00030B5057D05F007040D4D05EBC4031D68E4
:10200000854205D1C168196039B100250D6104E030
:102010000169C268CA6002B11161012580F82550CA
:102020000025C56005619D886D1E9D8030BD000046
:10203000402E002010B5FEF707FA04460648007847
:10204000401C054908702046FEF702FAFFF720FE03
:10205000FFF7E0F810BD00004100002001464A1ED5
:102060004FF0E0235A61084A106820F07F4000BF1B
:1020700010601A46126942F005021A611A46126986
:1020800042F002021A61704720ED00E07047000044
:102090002DE9F04F05460F4690469946A87A1D490E
:1020A0000E5C05F10B00805D11F800B00BEBC60073
:1020B00000F0FF0A184850F82A40002004F12404D8
:1020C000E0602760207C20EA0800207484F81190EA
:1020D000207CA4F1240410F0080F0DD194F83A00EC
:1020E0000E49097808430D4908700D48805D94F841
:1020F000391008430A4988552946204600F012F84D
:10210000206A20B12046216A00F023F8E56150469C
:10211000BDE8F08F40290000582000204500002035
:102120004600002010B590F8382001F10B039B5CAD
:1021300090F83940A34301F10B04A35423469B5C60
:1021400023B98B7A90F83A40A3438B720023C36182
:1021500010BDF0B5024612F8384F95785678A2F1C6
:1021600038020B4618680FE000F10B073F5DB743DC
:1021700000F10B0C0CF8047067463F5D17B9877AC5
:10218000AF4387721B1D18680028EDD1F0BD000019
:1021900010B51B4A1268D061194A126892F838309B
:1021A00000F10B02D25C164B1B6893F839301A43CE
:1021B000134B1B6893F8384000F10B031A55827AD1
:1021C0000F4B1B6893F83A301A4382720C4A12681C
:1021D00092F838100B4A525C094B1B6893F839305F
:1021E0009A43084B5A541A46525C42B9044A126840
:1021F00092F83A30044A12789A43034B1A7010BD91
:102200005400002046000020450000200146002226
:102210008A72002005E0002301F10B021354421CD6
:10222000D0B20828F7D370472DE9F041502111486A
:1022300000F048F900250DE0681C86B20D4800EB5F
:10224000051400EB06170020207067600AA0E0600C
:10225000681C85B2042DEFD3064800EB051400205E
:102260002070606004A0E060024804490860BDE896
:10227000F0810000081C00203F000000300000201A
:1022800030B501464A6808682AB9CC68606028B150
:102290000025456002E0106000B142608B680025B7
:1022A0009D6230BD70B5F021134800F00BF9002499
:1022B00011E0601C85B204EB44000F4901EBC00340
:1022C00005EB450001EBC006002018705E600BA016
:1022D0005861601C84B2092CEBD304EB440006491E
:1022E00001EBC00300201870586004A05861084634
:1022F0000349086070BD0000181B00203F0000006B
:102300002C00002000200B4908600B4908700B4985
:1023100008700B4908700B4908700B4908600B499D
:1023200008600B4908600B4908600B4908700B49AD
:102330000870704774000020410000204200002017
:102340004F0000204E0000202800002050000020F8
:102350003C000020380000204000002070000020D9
:1023600000210A4A1170002004E00021084A11549B
:10237000411CC8B20828F8D30021064A1170064A49
:102380001170064A1160064A11607047450000202E
:102390004600002043000020440000205C00002094
:1023A0005400002070B54FF4F261194800F08AF82B
:1023B0004FF48071174800F085F8002413E0601C8A
:1023C000C5B204EB440000EBC400114901EBC003AB
:1023D00005EB450000EBC50001EBC0065E610EA0F9
:1023E0001865601CC4B2152CE9D304EB440000EB63
:1023F000C400074901EBC0030020586106A018651E
:1024000000200649086002480549086070BD0000C8
:1024100058210020582000203F00000060000020CC
:102420005800002000B587B00320002180220A4B0D
:10243000CDE90132CDE903104FF6FF703F23074A83
:1024400000900748FFF79CF906AA06A13F20FFF776
:10245000B3FA07B000BD0000581E00205420002031
:102460007127000075432F4F532D49492049646C53
:102470006500000000B587B00320002180220A4BD0
:10248000CDE90132CDE903104FF6FE703E23074A35
:1024900000900748FFF774F906AA06A13E20FFF74F
:1024A0008BFA07B000BD0000581C0020541E00200D
:1024B000B127000075432F4F532D494920537461B4
:1024C0007400000004E0002200F8012B4A1E91B2C3
:1024D0000029F8D17047000070B578211148FFF746
:1024E000F1FF00240EE004EB44000E4901EBC005AF
:1024F000601C00EB400001EBC00068600AA068614E
:10250000601C84B2042CEED304EB4400054901EBBB
:10251000C0050020686004A068610846034908609F
:1025200070BD0000E82800203F0000006800002087
:102530002DE9F04160211048FFF7C4FF00240DE0B1
:10254000601C86B204EB44000B4901EBC00506EBAE
:10255000460001EBC0072F60601C84B2032CEFD350
:1025600004EB4400044901EBC00500202860084644
:1025700002490860BDE8F081602900206C0000205D
:1025800010B50024FDF760FF044613480078F8B941
:1025900012480078E0B900F02DF811481149097887
:1025A00050F82100104908600E4800780F4909785A
:1025B00088420DD00C480068C06B401C0A4909686D
:1025C000C8630B480068401C09490860FDF757FFC5
:1025D0002046FDF73DFF10BD4100002042000020D5
:1025E00058200020440000205C0000204300002010
:1025F000280000200649074A1278885C0649095CD1
:10260000034A515C01EBC001044A1170704700009D
:102610004029000045000020460000204400002022
:102620002DE9F84F05460F4690469946DDE90AAB7D
:1026300000200090FDF708FF009046480468002C39
:102640007DD004F11C0454F8080C4249086000983D
:10265000FDF7FEFE44F81C7CA5760020207660760F
:10266000606144F818BC44F810AC44F8148C0C9821
:1026700024F80C0C24F80A9C0020E077E81020775E
:1026800005F00700E076217F01208840A077E17EF9
:10269000012088406077002020606060E060A060DA
:1026A0002062A0626062E06220632BA06063A4F1FC
:1026B0001C044FF0000606E0002104F1540040F82D
:1026C0002610701CC6B2002EF6D02046FFF702F886
:1026D000FDF7BAFE0090214840F825400098FDF72C
:1026E000B7FE2046FFF7A8F8FDF7AEFE00901C48A5
:1026F000006860610020A0611948006810B11848A6
:10270000006884611648046004F13804A078154913
:10271000097840EA01001349087020781249085CE2
:10272000617840EA010014F838190F4A50540F48F4
:10273000007800F101000D490870009800E004E005
:10274000FDF786FE0020BDE8F88F0098FDF780FEBB
:102750004220F8E7580000203F00000058200020E9
:102760006000002045000020460000204F000020AF
:10277000002400BF00BFFDF767FE0446054800685F
:10278000401C044908602046FDF762FEFFF710F97F
:10279000F1E700005000002010B504480068FFF782
:1027A00043F9FF20FFF74EF810BD00005400002051
:1027B00000BF00BF02E0C820FFF72EFA1F480078D4
:1027C0000028F8D01E4800686421B0FBF1F01C49D5
:1027D00008600846006828B900201A490870FF20E0
:1027E000FFF7C2F9FDF730FE044615480068642182
:1027F0004843154908602046FDF72AFE00BFFDF753
:1028000023FE0446104800681049086000200E4965
:1028100008602046FDF71CFE0C480068084909685E
:10282000B0FBF1F0C0F1640006490870FFF702F94F
:1028300000F00EF86420FFF7EFF9E0E74000002019
:102840003800002034000020500000203C00002010
:102850007CB5002514E069462846FFF7EFF80646E8
:1028600066B9094850F8254044B1012C06D0D4E996
:10287000020100EB8100A0640198E064681CC5B20D
:102880003F2DE8D97CBD00005820002012F0010F38
:1028900008D012F0020F05D002E0491E002308C044
:1028A0000029FAD1704730B504464FF0FF31204679
:1028B00000F003F80546284630BD10B502460B4629
:1028C0001146002001E0491C401C19B10C780CB1E4
:1028D0009842F8D310BD0000FDF79CFDFEF74EFCBA
:1028E0000223044A00210448FEF7FAFEFEF7CEFE5A
:1028F00000BFFEE790040020E5060000504952208A
:102900005461736B203A204D6F76656D656E74204F
:10291000646574656374656420616E642050495217
:10292000204F75747075742076616C7565207365C1
:102930006E7420746F204D61696C626F780A0D00AF
:10294000000001000200010003000100020001007C
:102950000400010002000100030001000200010068
:102960000500010002000100030001000200010057
:102970000400010002000100030001000200010048
:102980000600010002000100030001000200010036
:102990000400010002000100030001000200010028
:1029A0000500010002000100030001000200010017
:1029B0000400010002000100030001000200010008
:1029C00007000100020001000300010002000100F5
:1029D00004000100020001000300010002000100E8
:1029E00005000100020001000300010002000100D7
:1029F00004000100020001000300010002000100C8
:102A000006000100020001000300010002000100B5
:102A100004000100020001000300010002000100A7
:102A20000500010002000100030001000200010096
:102A30000400010002000100030001000200010087
:102A4000010000007856341201000A00010018004D
:102A5000F000010001001000140002000500010058
:102A60003F0001000100050001001800780001008E
:102A70000400010004001800080001000400010027
:102A8000010001008000010016000100010080002B
:102A900001000100010040005800E80301001A7223
:102AA00001001000010008000A0028008002080050
:102AB0004000C213D42A000000000020940000004F
:102AC000A8020000682B0000940000204C32000097
:102AD000C402000000000000000000000000000030
:102AE00000000000000000000000000000000000E6
:102AF00000000000000000000000000000000000D6
:102B000000000000000000000000000000000000C5
:102B100000000000000000000000000000000000B5
:102B200000000000000000000000000000000000A5
:102B30000000000000000000000000000000000095
:102B40000000000000000000000000000000000085
:102B50000000000000000000000000000000000075
:082B600000000000000000006D
:0400000500000309EB
:00000001FF
